:10018D000000E43F282028258108421002020802C1
:10019D00E83F04020707840A441234620402000295
:1001AD0088208824882488248824BF2488248824AF
:1001BD00882488248824B8248724422440202020A1
:1001CD00800080004001200210040808F4178360AD
:1001DD008000FC1F8000880890089004FF7F0000BD
:1001ED0080008200840F44082004F03F272224223F
:1001FD00E43F0405840C8454444424780A00F17FC0
:10020D00F80F0808F80F0808F80F0000FC3F04006D
:10021D00F41F0400FC7F941014091206521831606B
:10022D00800080008000FC1F841084108410FC1F4F
:10023D00841084108410FC1F845080408040007F07
:10024D000000FE1F00080004000280018000FF7FF7
:10025D00800080008000800080008000A0004000B1
:1004E600E4FDD3EF9400EE9400401F0D0D0D0D0DAD
:1004F6000D0D0D0D0D0D0D0D0D0D0D0D0D0D0D0D26
:0A0506000D0D0DEF1F70DB1E80D8F5
:0105100022C8
:04053A007F0A7E00B6
:10053E00E4FDFCC3ED9FEC9E5015E4FBFA0BBB00F3
:0F054E00010ABA03F8BB84F50DBD00010C80E46F
:01055D00227B
:10057E0075B0FF75B220E4F5B1F594F5937580FF73
:08058E00F592F5917590FF2232
:10055E00E4FE53B0FEEF20E70553B0FD800343B039
:0F056E0002EF25E0FF43B0010EBE08E653B0FEDA
:01057D00225B
:0D05A90053B0F753B0EF12055E43B01022BF
:100511001205A97FD07E0012052D7F057E001205F0
:0C0521002D7F097E0012052D7F097E0051
:0D052D0043B00853B0EF12055E43B010223A
:100405008E0E8F0F8C108D11AD03AC02D3ED94EFD2
:10041500EC9400500AE50F94EFE50E940040047C3F
:10042500007DEFD3E515943FE5149401500AE511DD
:10043500943FE5109401400675140175153F7F2A18
:100445001205A9E50EFF7E0012052DAF0FAE0E12A7
:10045500052DECFF7E0012052DAF05AE0412052D0E
:100465007F2B1205A9E510FF7E0012052DAF11AEF9
:100475001012052DE514FF7E0012052DAF15AE14E3
:0804850012052D7F2C0205A9D0
:04048D008E088F093D
:10049100E4F50AF50BF50CF50D75140175153F7BA7
:1004A100EFFAFDFCFFFE120405E4F50AF50BE4F595
:1004B1000CF50DE508FF7E0012052DAF09AE0812FF
:1004C100052D050DE50D7002050CC394F0E50C94A6
:1004D1000040E0050BE50B7002050AC39440E50AF4
:0404E100940140CA78
:0104E50022F4
:1000030053B0FB7F647E0012053E43B0047F781239
:10001300053E7F3A1205A97F057E0012052D7FC597
:100023001205A97F1A7E0012052D7F361205A9E459
:10003300FFFE12052D7FB21205A97F057E00120572
:100043002D7F057E0012052DE4FFFE12052D7F3363
:100053007E0012052D7F337E0012052D7FB712051A
:10006300A97F057E0012052D7FBB1205A97F3F7E68
:100073000012052D7FC01205A97F2C7E0012052DCD
:100083007FC21205A97F017E0012052D7FC31205D1
:10009300A97F0F7E0012052D7FC41205A97F207E44
:1000A3000012052D7FC61205A97F017E0012052DC2
:1000B3007FD01205A97FA47E0012052D7FA17E00AB
:1000C30012052D7FE81205A97F037E0012052D7FFF
:1000D300E91205A91205227F087E0012052D7FE093
:1000E3001205117F087E0012052D7F147E00120574
:1000F3002D7F287E0012052D7F337E0012052D7F74
:100103003F7E0012052D7F077E0012052D7F137E93
:100113000012052D7F147E0012052D7F287E00120C
:10012300052D7F307E0012052D7FE11205117F081A
:100133007E0012052D7F037E0012052D7F247E0095
:1001430012052D7F327E0012052D7F327E001205AF
:100153002D7F3B7E0012052D7F147E0012052D7F1F
:10016300137E0012052D7F287E0012052D7F2F7E22
:100173000012052D7F201205A97F111205A97F7892
:0A0183007E0012053E7F290205A947
:04033C008E088F098F
:10034000E4FBFAF97F2A1205A9E508FF7E001205F1
:100350002DAF09AE0812052D740F2509F509E435F6
:1003600008F508FF7E0012052DAF09AE0812052D15
:100370007F2B1205A9ECFF7E0012052DAF05AE0400
:1003800012052D740F2DFDE43CFCFF7E0012052D9F
:10039000AF05AE0412052D7F2C1205A9E4F511F569
:1003A00012E510C43354E0248DF582E43401F58362
:1003B000E58229F582E43583F583E493FAE4FBEAE8
:1003C00030E019AF0FAE0EAD0DAC0C7808120596EB
:1003D00012052DAE0EAF0F12052D800E7FFF7E0091
:1003E00012052D7FFF7E0012052DEAC313FA0BBB09
:1003F00008CD090512E51270020511C39420E5111C
:040400009400409D87
:0104040022D5
:10026D0012057E43B0201200037F007EF812048D2C
:10027D0012053A7FE07E0712048D12053A7F1F1298
:10028D00048D12053AE4FF12048DE4750F1FF50E6F
:10029D00F50DF50CF5107DA0FC7F14FE12033CE46A
:1002AD00750FE0750E07F50DF50C7510017DA0FCB1
:1002BD007F24FE12033CE4F50F750EF8F50DF50CD9
:1002CD007510027DA0FC7F3CFE12033CE4750F1FF0
:1002DD00F50EF50DF50C7510037DA0FC7F4CFE128F
:1002ED00033CE4750FE0750E07F50DF50C75100464
:1002FD007DA0FC7F5CFE12033CE4750F1FF50EF52F
:10030D000DF50C7510057DA0FC7F76FE12033CE407
:10031D00F50F750EF8F50DF50C7510067DA0FC7F2B
:0F032D0086FE12033C7F147E0012053E0202760C
:030000000205B640
:0C05B600787FE4F6D8FD75811802026D14
:10059600E8600FECC313FCED13FDEE13FEEF13FF43
:0305A600D8F12267
:00000001FF
